S017000066756C6C5F626F61746C6F616465722E73726563DE
S11338000C942A1C0C94471C0C94471C0C94471CC5
S11338100C94471C0C94471C0C94471C0C94471C98
S11338200C94471C0C94471C0C94471C0C94471C88
S11338300C94471C0C94471C0C94471C0C94471C78
S11338400C94471C0C94471C0C94471C0C94471C68
S11338500C94471C11241FBECFE5D4E0DEBFCDBFBE
S113386010E0A0E6B0E0E8E8FCE302C005900D92A9
S1133870A036B107D9F721E0A0E6B0E001C01D925F
S1133880AD36B207E1F70E94D81D0C94421E0C9489
S1133890001CCF93DF935FB7F8949695982F8827F1
S11338A09795879507B600FCFDCFE199FECF23E0FD
S11338B0FC0120935700E895DB0140E061E0EC0156
S11338C0CA1BDB0B7C9111962C91119730E0322F9F
S11338D02227270F311D07B600FCFDCFE199FECF4B
S11338E0FE01EA0FFB1F090160935700E8951124BC
S11338F04E5F1296403831F707B600FCFDCFE199D0
S1133900FECF25E0FC0120935700E89507B600FCA4
S1133910FDCFE199FECF81E180935700E8955FBF29
S1133920DF91CF910895DA012FEF3FEF86179707C4
S1133930D8F4FC0154912527522F52955227052E75
S1133940569556955025052E569550255770022E9E
S1133950232F569507945795302D25270694579570
S1133960302525270196E2CF81E02A173B0709F08D
S113397080E0089580916B00813009F0CCC0809183
S11339806900843339F130F4803159F0813309F41A
S113399089C0BAC0863309F440C0873309F46CC0C7
S11339A0B3C0D89AE0916700F091680080818330B9
S11339B0B1F480916A00823091F480916C0181119C
S11339C00EC080916900805C0E94181E80916C0179
S11339D08F5F20C0D99A80916C01813021F08FE7EC
S11339E00E94181E98C080916A008330C1F7E0914C
S11339F06700F09168008081918198278927982732
S1133A00909366008093650080916900805C0E94B9
S1133A10181E82E080936C017EC0DA9A80916C015A
S1133A208230E1F580916A008138C1F560916700C8
S1133A30709168008091640091E0980F9093640005
S1133A4090E00E94491C80916900805C0E94181ECD
S1133A50809162009091630080589F4F909363001F
S1133A60809362002091650030916600821793076D
S1133A7008F451C083E0CECFDB9A80916C0183308F
S1133A8069F480916A00813049F480916900805C16
S1133A900E94181E84E080936C013BC08FE70E9453
S1133AA0181E37C0C09A80916C01843069F58091EA
S1133AB06A00833049F5E0916700F0916800408125
S1133AC05181542745275427609165007091660001
S1133AD080E090E00E94931C8823B1F080916900FB
S1133AE0805C0E94181E61E081E090E00E94CB1D82
S1133AF02FEF80E792E0215080409040E1F700C032
S1133B0000000C94000003C08FE70E94181E10925E
S1133B106C011092640010926B000895C19A80E1C8
S1133B208093690080E50E94181E81E080936C01F7
S1133B30089521E020936B00FC01219120936900FA
S1133B4060936A00F0936800E093670008950E9410
S1133B501C1E90916100911106C080936B0181E05D
S1133B608093610016C0E091600061E06E0F609385
S1133B706000F0E0E459FF4F808380916B0168138B
S1133B8008C010926000109261008CE690E00E94E0
S1133B90991D5F9808958EBB9FBB6DBBE29AE19A15
S1133BA0E199FECF08958EBB9FBBE09A8DB3089533
S1133BB0CF93DF938FEF8ABB87BB81E090E00E94B5
S1133BC0D31DD82F82E090E00E94D31DC82FD1309E
S1133BD011F4813091F480E895E20E94041EC13012
S1133BE039F460E082E090E00E94CB1D0E948E1DBB
S1133BF00E94A71D0E94BA1CFBCF0C94000080E019
S1133C0090E0DF91CF9108958898899A9C0140E0D3
S1133C1050E060E271EA87E090E00E94201E2150AB
S1133C20310930BD29B9549A539A86E880BD089564
S1133C305D9BFECF8CB908955F9BFECF8CB1089538
S1133C40A1E21A2EAA1BBB1BFD010DC0AA1FBB1F9C
S1133C50EE1FFF1FA217B307E407F50720F0A21B0E
S1133C60B30BE40BF50B661F771F881F991F1A947B
S1133C7069F760957095809590959B01AC01BD01A5
S10B3C80CF010895F894FFCF71
S9033800C4
